{
  "_format": "hh-sol-artifact-1",
  "contractName": "AutoSaver",
  "sourceName": "contracts/AutoSave.sol",
  "abi": [
    {
      "inputs": [
        {
          "internalType": "address",
          "name": "_tokenAddress",
          "type": "address"
        }
      ],
      "stateMutability": "nonpayable",
      "type": "constructor"
    },
    {
      "anonymous": false,
      "inputs": [
        {
          "indexed": false,
          "internalType": "uint256",
          "name": "_seconds",
          "type": "uint256"
        }
      ],
      "name": "AutoDepositSet",
      "type": "event"
    },
    {
      "anonymous": false,
      "inputs": [
        {
          "indexed": false,
          "internalType": "uint256",
          "name": "_seconds",
          "type": "uint256"
        }
      ],
      "name": "AutoWithdrawSet",
      "type": "event"
    },
    {
      "anonymous": false,
      "inputs": [
        {
          "indexed": true,
          "internalType": "address",
          "name": "_from",
          "type": "address"
        },
        {
          "indexed": false,
          "internalType": "uint256",
          "name": "_amount",
          "type": "uint256"
        }
      ],
      "name": "Deposit",
      "type": "event"
    },
    {
      "anonymous": false,
      "inputs": [
        {
          "indexed": false,
          "internalType": "string",
          "name": "message",
          "type": "string"
        },
        {
          "indexed": false,
          "internalType": "uint256",
          "name": "value",
          "type": "uint256"
        }
      ],
      "name": "LogInfo",
      "type": "event"
    },
    {
      "anonymous": false,
      "inputs": [
        {
          "indexed": true,
          "internalType": "address",
          "name": "_address",
          "type": "address"
        },
        {
          "indexed": false,
          "internalType": "uint256",
          "name": "_totalBalance",
          "type": "uint256"
        }
      ],
      "name": "TotalBalanceUpdated",
      "type": "event"
    },
    {
      "anonymous": false,
      "inputs": [
        {
          "indexed": true,
          "internalType": "address",
          "name": "_to",
          "type": "address"
        },
        {
          "indexed": false,
          "internalType": "uint256",
          "name": "_amount",
          "type": "uint256"
        }
      ],
      "name": "Withdrawal",
      "type": "event"
    },
    {
      "inputs": [
        {
          "internalType": "address",
          "name": "",
          "type": "address"
        }
      ],
      "name": "autoDepositEnabledFor",
      "outputs": [
        {
          "internalType": "bool",
          "name": "",
          "type": "bool"
        }
      ],
      "stateMutability": "view",
      "type": "function"
    },
    {
      "inputs": [
        {
          "internalType": "address",
          "name": "",
          "type": "address"
        }
      ],
      "name": "autoDepositTimeFor",
      "outputs": [
        {
          "internalType": "uint256",
          "name": "",
          "type": "uint256"
        }
      ],
      "stateMutability": "view",
      "type": "function"
    },
    {
      "inputs": [
        {
          "internalType": "address",
          "name": "",
          "type": "address"
        }
      ],
      "name": "autoWithdrawEnabledFor",
      "outputs": [
        {
          "internalType": "bool",
          "name": "",
          "type": "bool"
        }
      ],
      "stateMutability": "view",
      "type": "function"
    },
    {
      "inputs": [
        {
          "internalType": "address",
          "name": "",
          "type": "address"
        }
      ],
      "name": "autoWithdrawTimeFor",
      "outputs": [
        {
          "internalType": "uint256",
          "name": "",
          "type": "uint256"
        }
      ],
      "stateMutability": "view",
      "type": "function"
    },
    {
      "inputs": [
        {
          "internalType": "address",
          "name": "",
          "type": "address"
        }
      ],
      "name": "automatedBalances",
      "outputs": [
        {
          "internalType": "uint256",
          "name": "",
          "type": "uint256"
        }
      ],
      "stateMutability": "view",
      "type": "function"
    },
    {
      "inputs": [],
      "name": "checkAutoActions",
      "outputs": [],
      "stateMutability": "nonpayable",
      "type": "function"
    },
    {
      "inputs": [
        {
          "internalType": "uint256",
          "name": "_amount",
          "type": "uint256"
        }
      ],
      "name": "deposit",
      "outputs": [],
      "stateMutability": "nonpayable",
      "type": "function"
    },
    {
      "inputs": [],
      "name": "depositAmount",
      "outputs": [
        {
          "internalType": "uint256",
          "name": "",
          "type": "uint256"
        }
      ],
      "stateMutability": "view",
      "type": "function"
    },
    {
      "inputs": [],
      "name": "disableAutoDeposit",
      "outputs": [],
      "stateMutability": "nonpayable",
      "type": "function"
    },
    {
      "inputs": [],
      "name": "disableAutoWithdraw",
      "outputs": [],
      "stateMutability": "nonpayable",
      "type": "function"
    },
    {
      "inputs": [
        {
          "internalType": "uint256",
          "name": "_depositAmount",
          "type": "uint256"
        }
      ],
      "name": "enableAutoDeposit",
      "outputs": [],
      "stateMutability": "nonpayable",
      "type": "function"
    },
    {
      "inputs": [
        {
          "internalType": "uint256",
          "name": "_withdrawalAmount",
          "type": "uint256"
        }
      ],
      "name": "enableAutoWithdraw",
      "outputs": [],
      "stateMutability": "nonpayable",
      "type": "function"
    },
    {
      "inputs": [
        {
          "internalType": "address",
          "name": "",
          "type": "address"
        }
      ],
      "name": "endDepositDateFor",
      "outputs": [
        {
          "internalType": "uint256",
          "name": "",
          "type": "uint256"
        }
      ],
      "stateMutability": "view",
      "type": "function"
    },
    {
      "inputs": [
        {
          "internalType": "address",
          "name": "",
          "type": "address"
        }
      ],
      "name": "endWithdrawDateFor",
      "outputs": [
        {
          "internalType": "uint256",
          "name": "",
          "type": "uint256"
        }
      ],
      "stateMutability": "view",
      "type": "function"
    },
    {
      "inputs": [
        {
          "internalType": "address",
          "name": "_address",
          "type": "address"
        }
      ],
      "name": "getTotalBalance",
      "outputs": [
        {
          "internalType": "uint256",
          "name": "",
          "type": "uint256"
        }
      ],
      "stateMutability": "view",
      "type": "function"
    },
    {
      "inputs": [
        {
          "internalType": "address",
          "name": "",
          "type": "address"
        }
      ],
      "name": "lastAutoDeposit",
      "outputs": [
        {
          "internalType": "uint256",
          "name": "",
          "type": "uint256"
        }
      ],
      "stateMutability": "view",
      "type": "function"
    },
    {
      "inputs": [
        {
          "internalType": "address",
          "name": "",
          "type": "address"
        }
      ],
      "name": "lastAutoWithdraw",
      "outputs": [
        {
          "internalType": "uint256",
          "name": "",
          "type": "uint256"
        }
      ],
      "stateMutability": "view",
      "type": "function"
    },
    {
      "inputs": [
        {
          "internalType": "address",
          "name": "",
          "type": "address"
        }
      ],
      "name": "manualBalances",
      "outputs": [
        {
          "internalType": "uint256",
          "name": "",
          "type": "uint256"
        }
      ],
      "stateMutability": "view",
      "type": "function"
    },
    {
      "inputs": [],
      "name": "owner",
      "outputs": [
        {
          "internalType": "address",
          "name": "",
          "type": "address"
        }
      ],
      "stateMutability": "view",
      "type": "function"
    },
    {
      "inputs": [
        {
          "internalType": "uint256",
          "name": "_seconds",
          "type": "uint256"
        }
      ],
      "name": "setAutoDepositTime",
      "outputs": [],
      "stateMutability": "nonpayable",
      "type": "function"
    },
    {
      "inputs": [
        {
          "internalType": "uint256",
          "name": "_seconds",
          "type": "uint256"
        }
      ],
      "name": "setAutoWithdrawTime",
      "outputs": [],
      "stateMutability": "nonpayable",
      "type": "function"
    },
    {
      "inputs": [],
      "name": "tokenAddress",
      "outputs": [
        {
          "internalType": "address",
          "name": "",
          "type": "address"
        }
      ],
      "stateMutability": "view",
      "type": "function"
    },
    {
      "inputs": [
        {
          "internalType": "address",
          "name": "",
          "type": "address"
        }
      ],
      "name": "totalAutoDeposits",
      "outputs": [
        {
          "internalType": "uint256",
          "name": "",
          "type": "uint256"
        }
      ],
      "stateMutability": "view",
      "type": "function"
    },
    {
      "inputs": [
        {
          "internalType": "address",
          "name": "",
          "type": "address"
        }
      ],
      "name": "totalAutoWithdrawals",
      "outputs": [
        {
          "internalType": "uint256",
          "name": "",
          "type": "uint256"
        }
      ],
      "stateMutability": "view",
      "type": "function"
    },
    {
      "inputs": [
        {
          "internalType": "address",
          "name": "",
          "type": "address"
        }
      ],
      "name": "totalManualDeposits",
      "outputs": [
        {
          "internalType": "uint256",
          "name": "",
          "type": "uint256"
        }
      ],
      "stateMutability": "view",
      "type": "function"
    },
    {
      "inputs": [
        {
          "internalType": "address",
          "name": "",
          "type": "address"
        }
      ],
      "name": "totalManualWithdrawals",
      "outputs": [
        {
          "internalType": "uint256",
          "name": "",
          "type": "uint256"
        }
      ],
      "stateMutability": "view",
      "type": "function"
    },
    {
      "inputs": [
        {
          "internalType": "uint256",
          "name": "_amount",
          "type": "uint256"
        }
      ],
      "name": "withdraw",
      "outputs": [],
      "stateMutability": "nonpayable",
      "type": "function"
    },
    {
      "inputs": [],
      "name": "withdrawalAmount",
      "outputs": [
        {
          "internalType": "uint256",
          "name": "",
          "type": "uint256"
        }
      ],
      "stateMutability": "view",
      "type": "function"
    },
    {
      "stateMutability": "payable",
      "type": "receive"
    }
  ],
  "bytecode": "0x60806040523480156200001157600080fd5b506040516200229838038062002298833981810160405281019062000037919062000129565b336000806101000a81548173ffffffffffffffffffffffffffffffffffffffff021916908373ffffffffffffffffffffffffffffffffffffffff16021790555080601160006101000a81548173ffffffffffffffffffffffffffffffffffffffff021916908373ffffffffffffffffffffffffffffffffffffffff160217905550506200015b565b600080fd5b600073ffffffffffffffffffffffffffffffffffffffff82169050919050565b6000620000f182620000c4565b9050919050565b6200010381620000e4565b81146200010f57600080fd5b50565b6000815190506200012381620000f8565b92915050565b600060208284031215620001425762000141620000bf565b5b6000620001528482850162000112565b91505092915050565b61212d806200016b6000396000f3fe6080604052600436106101bb5760003560e01c80639d76ea58116100ec578063c183b0321161008a578063d3d3819311610064578063d3d3819314610698578063e6e268f4146106d5578063ee123f7114610700578063f7e116521461073d576101fb565b8063c183b0321461061b578063c981883d14610644578063d16823fd1461065b576101fb565b8063a616ff67116100c6578063a616ff6714610561578063a9df4bd71461059e578063b6b55f25146105b5578063bbf97157146105de576101fb565b80639d76ea58146104bc5780639de1d839146104e75780639ee95b3214610524576101fb565b806351091ddc11610159578063853960061161013357806385396006146104005780638da5cb5b1461043d5780638e6e8d361461046857806394793a791461047f576101fb565b806351091ddc14610349578063563cdf921461038657806382d0a31b146103c3576101fb565b8063419759f511610195578063419759f51461028f57806347486ad0146102ba5780634768475e146102e35780634dc5fdc21461030c576101fb565b806313dc538f146102005780631e50c15e146102295780632e1a7d4d14610266576101fb565b366101fb576040517f08c379a00000000000000000000000000000000000000000000000000000000081526004016101f290611b8d565b60405180910390fd5b600080fd5b34801561020c57600080fd5b5061022760048036038101906102229190611be8565b61077a565b005b34801561023557600080fd5b50610250600480360381019061024b9190611c73565b61087e565b60405161025d9190611caf565b60405180910390f35b34801561027257600080fd5b5061028d60048036038101906102889190611be8565b610896565b005b34801561029b57600080fd5b506102a4610afa565b6040516102b19190611caf565b60405180910390f35b3480156102c657600080fd5b506102e160048036038101906102dc9190611be8565b610b00565b005b3480156102ef57600080fd5b5061030a60048036038101906103059190611be8565b610c04565b005b34801561031857600080fd5b50610333600480360381019061032e9190611c73565b610c66565b6040516103409190611caf565b60405180910390f35b34801561035557600080fd5b50610370600480360381019061036b9190611c73565b610c7e565b60405161037d9190611caf565b60405180910390f35b34801561039257600080fd5b506103ad60048036038101906103a89190611c73565b610c96565b6040516103ba9190611caf565b60405180910390f35b3480156103cf57600080fd5b506103ea60048036038101906103e59190611c73565b610cae565b6040516103f79190611caf565b60405180910390f35b34801561040c57600080fd5b5061042760048036038101906104229190611c73565b610cc6565b6040516104349190611caf565b60405180910390f35b34801561044957600080fd5b50610452610cde565b60405161045f9190611cd9565b60405180910390f35b34801561047457600080fd5b5061047d610d02565b005b34801561048b57600080fd5b506104a660048036038101906104a19190611c73565b610d5c565b6040516104b39190611caf565b60405180910390f35b3480156104c857600080fd5b506104d1610d74565b6040516104de9190611cd9565b60405180910390f35b3480156104f357600080fd5b5061050e60048036038101906105099190611c73565b610d9a565b60405161051b9190611caf565b60405180910390f35b34801561053057600080fd5b5061054b60048036038101906105469190611c73565b610db2565b6040516105589190611caf565b60405180910390f35b34801561056d57600080fd5b5061058860048036038101906105839190611c73565b610dca565b6040516105959190611caf565b60405180910390f35b3480156105aa57600080fd5b506105b3610de2565b005b3480156105c157600080fd5b506105dc60048036038101906105d79190611be8565b610e3c565b005b3480156105ea57600080fd5b5061060560048036038101906106009190611c73565b61130d565b6040516106129190611caf565b60405180910390f35b34801561062757600080fd5b50610642600480360381019061063d9190611be8565b611325565b005b34801561065057600080fd5b50610659611387565b005b34801561066757600080fd5b50610682600480360381019061067d9190611c73565b6114d5565b60405161068f9190611d0f565b60405180910390f35b3480156106a457600080fd5b506106bf60048036038101906106ba9190611c73565b6114f5565b6040516106cc9190611caf565b60405180910390f35b3480156106e157600080fd5b506106ea611588565b6040516106f79190611caf565b60405180910390f35b34801561070c57600080fd5b5061072760048036038101906107229190611c73565b61158e565b6040516107349190611caf565b60405180910390f35b34801561074957600080fd5b50610764600480360381019061075f9190611c73565b6115a6565b6040516107719190611d0f565b60405180910390f35b80600e60003373ffffffffffffffffffffffffffffffffffffffff1673ffffffffffffffffffffffffffffffffffffffff1681526020019081526020016000208190555080426107ca9190611d59565b600c60003373ffffffffffffffffffffffffffffffffffffffff1673ffffffffffffffffffffffffffffffffffffffff168152602001908152602001600020819055507f5d6560d72d541d1ba915b3b220db45d315ce36116e4e5b3be52a7978459819f84260405161083c9190611dd9565b60405180910390a17fc291c3ac6d75fe96f426071646ec720a845ad4f43f26a22ab3a978a2a9d94c4e816040516108739190611caf565b60405180910390a150565b600b6020528060005260406000206000915090505481565b600160003373ffffffffffffffffffffffffffffffffffffffff1673ffffffffffffffffffffffffffffffffffffffff16815260200190815260200160002054811115610918576040517f08c379a000000000000000000000000000000000000000000000000000000000815260040161090f90611e53565b60405180910390fd5b6000601160009054906101000a900473ffffffffffffffffffffffffffffffffffffffff1690508073ffffffffffffffffffffffffffffffffffffffff1663a9059cbb33846040518363ffffffff1660e01b815260040161097a929190611e73565b6020604051808303816000875af1158015610999573d6000803e3d6000fd5b505050506040513d601f19601f820116820180604052508101906109bd9190611ec8565b6109fc576040517f08c379a00000000000000000000000000000000000000000000000000000000081526004016109f390611f41565b60405180910390fd5b81600160003373ffffffffffffffffffffffffffffffffffffffff1673ffffffffffffffffffffffffffffffffffffffff1681526020019081526020016000206000828254610a4b9190611f61565b925050819055503373ffffffffffffffffffffffffffffffffffffffff167f7fcf532c15f0a6db0bd6d0e038bea71d30d808c7d98cb3bf7268a95bf5081b6583604051610a989190611caf565b60405180910390a23373ffffffffffffffffffffffffffffffffffffffff167fe933044e76d88c49127d0dcb87587df5320a3a8cd3b83f99a4549dff27b5854a610ae1336114f5565b604051610aee9190611caf565b60405180910390a25050565b60105481565b80600d60003373ffffffffffffffffffffffffffffffffffffffff1673ffffffffffffffffffffffffffffffffffffffff168152602001908152602001600020819055508042610b509190611d59565b600b60003373ffffffffffffffffffffffffffffffffffffffff1673ffffffffffffffffffffffffffffffffffffffff168152602001908152602001600020819055507f5d6560d72d541d1ba915b3b220db45d315ce36116e4e5b3be52a7978459819f842604051610bc29190611dd9565b60405180910390a17f0a787bef745cafc525ea93cb0ff678a4bef9d08c489859d7e23049067be91e5f81604051610bf99190611caf565b60405180910390a150565b6001600a60003373ffffffffffffffffffffffffffffffffffffffff1673ffffffffffffffffffffffffffffffffffffffff16815260200190815260200160002060006101000a81548160ff0219169083151502179055508060108190555050565b60026020528060005260406000206000915090505481565b60066020528060005260406000206000915090505481565b600d6020528060005260406000206000915090505481565b60076020528060005260406000206000915090505481565b60016020528060005260406000206000915090505481565b60008054906101000a900473ffffffffffffffffffffffffffffffffffffffff1681565b6000600a60003373ffffffffffffffffffffffffffffffffffffffff1673ffffffffffffffffffffffffffffffffffffffff16815260200190815260200160002060006101000a81548160ff021916908315150217905550565b600c6020528060005260406000206000915090505481565b601160009054906101000a900473ffffffffffffffffffffffffffffffffffffffff1681565b60086020528060005260406000206000915090505481565b60046020528060005260406000206000915090505481565b600e6020528060005260406000206000915090505481565b6000600960003373ffffffffffffffffffffffffffffffffffffffff1673ffffffffffffffffffffffffffffffffffffffff16815260200190815260200160002060006101000a81548160ff021916908315150217905550565b6000601160009054906101000a900473ffffffffffffffffffffffffffffffffffffffff169050600a60003373ffffffffffffffffffffffffffffffffffffffff1673ffffffffffffffffffffffffffffffffffffffff16815260200190815260200160002060009054906101000a900460ff168015610efb5750600c60003373ffffffffffffffffffffffffffffffffffffffff1673ffffffffffffffffffffffffffffffffffffffff168152602001908152602001600020544210155b1561114f578073ffffffffffffffffffffffffffffffffffffffff166323b872dd3330856040518463ffffffff1660e01b8152600401610f3d93929190611f95565b6020604051808303816000875af1158015610f5c573d6000803e3d6000fd5b505050506040513d601f19601f82011682018060405250810190610f809190611ec8565b610fbf576040517f08c379a0000000000000000000000000000000000000000000000000000000008152600401610fb690611f41565b60405180910390fd5b81600260003373ffffffffffffffffffffffffffffffffffffffff1673ffffffffffffffffffffffffffffffffffffffff168152602001908152602001600020600082825461100e9190611d59565b925050819055503373ffffffffffffffffffffffffffffffffffffffff167fe1fffcc4923d04b559f4d29a8bfc6cda04eb5b0d3c460751c2402c5c5cc9109c8360405161105b9190611caf565b60405180910390a26000600a60003373ffffffffffffffffffffffffffffffffffffffff1673ffffffffffffffffffffffffffffffffffffffff16815260200190815260200160002060006101000a81548160ff0219169083151502179055507f5d6560d72d541d1ba915b3b220db45d315ce36116e4e5b3be52a7978459819f860006040516110eb919061205d565b60405180910390a13373ffffffffffffffffffffffffffffffffffffffff167fe933044e76d88c49127d0dcb87587df5320a3a8cd3b83f99a4549dff27b5854a611134336114f5565b6040516111419190611caf565b60405180910390a25061130a565b8073ffffffffffffffffffffffffffffffffffffffff166323b872dd3330856040518463ffffffff1660e01b815260040161118c93929190611f95565b6020604051808303816000875af11580156111ab573d6000803e3d6000fd5b505050506040513d601f19601f820116820180604052508101906111cf9190611ec8565b61120e576040517f08c379a000000000000000000000000000000000000000000000000000000000815260040161120590611f41565b60405180910390fd5b81600160003373ffffffffffffffffffffffffffffffffffffffff1673ffffffffffffffffffffffffffffffffffffffff168152602001908152602001600020600082825461125d9190611d59565b925050819055503373ffffffffffffffffffffffffffffffffffffffff167fe1fffcc4923d04b559f4d29a8bfc6cda04eb5b0d3c460751c2402c5c5cc9109c836040516112aa9190611caf565b60405180910390a23373ffffffffffffffffffffffffffffffffffffffff167fe933044e76d88c49127d0dcb87587df5320a3a8cd3b83f99a4549dff27b5854a6112f3336114f5565b6040516113009190611caf565b60405180910390a2505b50565b60036020528060005260406000206000915090505481565b6001600960003373ffffffffffffffffffffffffffffffffffffffff1673ffffffffffffffffffffffffffffffffffffffff16815260200190815260200160002060006101000a81548160ff02191690831515021790555080600f8190555050565b600960003373ffffffffffffffffffffffffffffffffffffffff1673ffffffffffffffffffffffffffffffffffffffff16815260200190815260200160002060009054906101000a900460ff16801561141f5750600b60003373ffffffffffffffffffffffffffffffffffffffff1673ffffffffffffffffffffffffffffffffffffffff168152602001908152602001600020544210155b1561142d5761142c6115c6565b5b600a60003373ffffffffffffffffffffffffffffffffffffffff1673ffffffffffffffffffffffffffffffffffffffff16815260200190815260200160002060009054906101000a900460ff1680156114c55750600c60003373ffffffffffffffffffffffffffffffffffffffff1673ffffffffffffffffffffffffffffffffffffffff168152602001908152602001600020544210155b156114d3576114d26118c9565b5b565b600a6020528060005260406000206000915054906101000a900460ff1681565b6000600260008373ffffffffffffffffffffffffffffffffffffffff1673ffffffffffffffffffffffffffffffffffffffff16815260200190815260200160002054600160008473ffffffffffffffffffffffffffffffffffffffff1673ffffffffffffffffffffffffffffffffffffffff168152602001908152602001600020546115819190611d59565b9050919050565b600f5481565b60056020528060005260406000206000915090505481565b60096020528060005260406000206000915054906101000a900460ff1681565b600260003373ffffffffffffffffffffffffffffffffffffffff1673ffffffffffffffffffffffffffffffffffffffff16815260200190815260200160002054600f54111561164a576040517f08c379a0000000000000000000000000000000000000000000000000000000008152600401611641906120d7565b60405180910390fd5b6000601160009054906101000a900473ffffffffffffffffffffffffffffffffffffffff1690508073ffffffffffffffffffffffffffffffffffffffff1663a9059cbb60008054906101000a900473ffffffffffffffffffffffffffffffffffffffff16600f546040518363ffffffff1660e01b81526004016116ce929190611e73565b6020604051808303816000875af11580156116ed573d6000803e3d6000fd5b505050506040513d601f19601f820116820180604052508101906117119190611ec8565b611750576040517f08c379a000000000000000000000000000000000000000000000000000000000815260040161174790611f41565b60405180910390fd5b600f54600260003373ffffffffffffffffffffffffffffffffffffffff1673ffffffffffffffffffffffffffffffffffffffff16815260200190815260200160002060008282546117a19190611f61565b9250508190555060008054906101000a900473ffffffffffffffffffffffffffffffffffffffff1673ffffffffffffffffffffffffffffffffffffffff167f7fcf532c15f0a6db0bd6d0e038bea71d30d808c7d98cb3bf7268a95bf5081b65600f546040516118109190611caf565b60405180910390a23373ffffffffffffffffffffffffffffffffffffffff167fe933044e76d88c49127d0dcb87587df5320a3a8cd3b83f99a4549dff27b5854a611859336114f5565b6040516118669190611caf565b60405180910390a26000600960003373ffffffffffffffffffffffffffffffffffffffff1673ffffffffffffffffffffffffffffffffffffffff16815260200190815260200160002060006101000a81548160ff02191690831515021790555050565b6000601160009054906101000a900473ffffffffffffffffffffffffffffffffffffffff1690508073ffffffffffffffffffffffffffffffffffffffff166323b872dd33306010546040518463ffffffff1660e01b815260040161192f93929190611f95565b6020604051808303816000875af115801561194e573d6000803e3d6000fd5b505050506040513d601f19601f820116820180604052508101906119729190611ec8565b6119b1576040517f08c379a00000000000000000000000000000000000000000000000000000000081526004016119a890611f41565b60405180910390fd5b601054600260003373ffffffffffffffffffffffffffffffffffffffff1673ffffffffffffffffffffffffffffffffffffffff1681526020019081526020016000206000828254611a029190611d59565b925050819055503373ffffffffffffffffffffffffffffffffffffffff167fe1fffcc4923d04b559f4d29a8bfc6cda04eb5b0d3c460751c2402c5c5cc9109c601054604051611a519190611caf565b60405180910390a23373ffffffffffffffffffffffffffffffffffffffff167fe933044e76d88c49127d0dcb87587df5320a3a8cd3b83f99a4549dff27b5854a611a9a336114f5565b604051611aa79190611caf565b60405180910390a26000600a60003373ffffffffffffffffffffffffffffffffffffffff1673ffffffffffffffffffffffffffffffffffffffff16815260200190815260200160002060006101000a81548160ff02191690831515021790555050565b600082825260208201905092915050565b7f436f6e747261637420646f6573206e6f7420616363657074204574686572206460008201527f69726563746c7900000000000000000000000000000000000000000000000000602082015250565b6000611b77602783611b0a565b9150611b8282611b1b565b604082019050919050565b60006020820190508181036000830152611ba681611b6a565b9050919050565b600080fd5b6000819050919050565b611bc581611bb2565b8114611bd057600080fd5b50565b600081359050611be281611bbc565b92915050565b600060208284031215611bfe57611bfd611bad565b5b6000611c0c84828501611bd3565b91505092915050565b600073ffffffffffffffffffffffffffffffffffffffff82169050919050565b6000611c4082611c15565b9050919050565b611c5081611c35565b8114611c5b57600080fd5b50565b600081359050611c6d81611c47565b92915050565b600060208284031215611c8957611c88611bad565b5b6000611c9784828501611c5e565b91505092915050565b611ca981611bb2565b82525050565b6000602082019050611cc46000830184611ca0565b92915050565b611cd381611c35565b82525050565b6000602082019050611cee6000830184611cca565b92915050565b60008115159050919050565b611d0981611cf4565b82525050565b6000602082019050611d246000830184611d00565b92915050565b7f4e487b7100000000000000000000000000000000000000000000000000000000600052601160045260246000fd5b6000611d6482611bb2565b9150611d6f83611bb2565b9250828201905080821115611d8757611d86611d2a565b5b92915050565b7f54696d65205374616d7000000000000000000000000000000000000000000000600082015250565b6000611dc3600a83611b0a565b9150611dce82611d8d565b602082019050919050565b60006040820190508181036000830152611df281611db6565b9050611e016020830184611ca0565b92915050565b7f496e73756666696369656e74206d616e75616c2062616c616e63650000000000600082015250565b6000611e3d601b83611b0a565b9150611e4882611e07565b602082019050919050565b60006020820190508181036000830152611e6c81611e30565b9050919050565b6000604082019050611e886000830185611cca565b611e956020830184611ca0565b9392505050565b611ea581611cf4565b8114611eb057600080fd5b50565b600081519050611ec281611e9c565b92915050565b600060208284031215611ede57611edd611bad565b5b6000611eec84828501611eb3565b91505092915050565b7f5472616e73666572206661696c65640000000000000000000000000000000000600082015250565b6000611f2b600f83611b0a565b9150611f3682611ef5565b602082019050919050565b60006020820190508181036000830152611f5a81611f1e565b9050919050565b6000611f6c82611bb2565b9150611f7783611bb2565b9250828203905081811115611f8f57611f8e611d2a565b5b92915050565b6000606082019050611faa6000830186611cca565b611fb76020830185611cca565b611fc46040830184611ca0565b949350505050565b7f4175746f206465706f7369742064697361626c65640000000000000000000000600082015250565b6000612002601583611b0a565b915061200d82611fcc565b602082019050919050565b6000819050919050565b6000819050919050565b600061204761204261203d84612018565b612022565b611bb2565b9050919050565b6120578161202c565b82525050565b6000604082019050818103600083015261207681611ff5565b9050612085602083018461204e565b92915050565b7f496e73756666696369656e74206175746f6d617465642062616c616e63650000600082015250565b60006120c1601e83611b0a565b91506120cc8261208b565b602082019050919050565b600060208201905081810360008301526120f0816120b4565b905091905056fea26469706673582212202393dc687e674780364f90d3334aa40a04c5c0dcbab4af3932d7f130e1510f1d64736f6c63430008140033",
  "linkReferences": {},
  "deployedLinkReferences": {}
}